{
  "_format": "hh-sol-artifact-1",
  "contractName": "TohyoDapp",
  "sourceName": "contracts/tohyo.sol",
  "abi": [
    {
      "inputs": [
        {
          "internalType": "uint256",
          "name": "_votingDuration",
          "type": "uint256"
        }
      ],
      "stateMutability": "nonpayable",
      "type": "constructor"
    },
    {
      "anonymous": false,
      "inputs": [
        {
          "indexed": true,
          "internalType": "uint256",
          "name": "candidateId",
          "type": "uint256"
        },
        {
          "indexed": false,
          "internalType": "string",
          "name": "name",
          "type": "string"
        },
        {
          "indexed": false,
          "internalType": "address",
          "name": "candidateAddress",
          "type": "address"
        }
      ],
      "name": "CandidateAdded",
      "type": "event"
    },
    {
      "anonymous": false,
      "inputs": [
        {
          "indexed": true,
          "internalType": "address",
          "name": "voter",
          "type": "address"
        },
        {
          "indexed": false,
          "internalType": "uint256",
          "name": "candidateId",
          "type": "uint256"
        },
        {
          "indexed": false,
          "internalType": "uint256",
          "name": "timestamp",
          "type": "uint256"
        }
      ],
      "name": "VoteCast",
      "type": "event"
    },
    {
      "anonymous": false,
      "inputs": [
        {
          "indexed": true,
          "internalType": "address",
          "name": "voter",
          "type": "address"
        },
        {
          "indexed": false,
          "internalType": "uint256",
          "name": "timestamp",
          "type": "uint256"
        }
      ],
      "name": "VoterRegistered",
      "type": "event"
    },
    {
      "anonymous": false,
      "inputs": [
        {
          "indexed": false,
          "internalType": "enum TohyoDapp.VotingStage",
          "name": "newStage",
          "type": "uint8"
        }
      ],
      "name": "VotingStageChanged",
      "type": "event"
    },
    {
      "inputs": [
        {
          "internalType": "string",
          "name": "_name",
          "type": "string"
        },
        {
          "internalType": "string",
          "name": "_description",
          "type": "string"
        },
        {
          "internalType": "address",
          "name": "_candidateAddress",
          "type": "address"
        }
      ],
      "name": "addCandidate",
      "outputs": [],
      "stateMutability": "nonpayable",
      "type": "function"
    },
    {
      "inputs": [
        {
          "internalType": "address",
          "name": "",
          "type": "address"
        }
      ],
      "name": "candidateAddresses",
      "outputs": [
        {
          "internalType": "bool",
          "name": "",
          "type": "bool"
        }
      ],
      "stateMutability": "view",
      "type": "function"
    },
    {
      "inputs": [
        {
          "internalType": "enum TohyoDapp.VotingStage",
          "name": "_newStage",
          "type": "uint8"
        }
      ],
      "name": "changeStage",
      "outputs": [],
      "stateMutability": "nonpayable",
      "type": "function"
    },
    {
      "inputs": [],
      "name": "currentStage",
      "outputs": [
        {
          "internalType": "enum TohyoDapp.VotingStage",
          "name": "",
          "type": "uint8"
        }
      ],
      "stateMutability": "view",
      "type": "function"
    },
    {
      "inputs": [
        {
          "internalType": "uint256",
          "name": "_id",
          "type": "uint256"
        }
      ],
      "name": "getCandidate",
      "outputs": [
        {
          "components": [
            {
              "internalType": "uint256",
              "name": "id",
              "type": "uint256"
            },
            {
              "internalType": "string",
              "name": "name",
              "type": "string"
            },
            {
              "internalType": "string",
              "name": "description",
              "type": "string"
            },
            {
              "internalType": "address",
              "name": "candidateAddress",
              "type": "address"
            },
            {
              "internalType": "uint256",
              "name": "voteCount",
              "type": "uint256"
            },
            {
              "internalType": "bool",
              "name": "isRegistered",
              "type": "bool"
            }
          ],
          "internalType": "struct TohyoDapp.Candidate",
          "name": "",
          "type": "tuple"
        }
      ],
      "stateMutability": "view",
      "type": "function"
    },
    {
      "inputs": [],
      "name": "getResults",
      "outputs": [
        {
          "components": [
            {
              "internalType": "uint256",
              "name": "id",
              "type": "uint256"
            },
            {
              "internalType": "string",
              "name": "name",
              "type": "string"
            },
            {
              "internalType": "string",
              "name": "description",
              "type": "string"
            },
            {
              "internalType": "address",
              "name": "candidateAddress",
              "type": "address"
            },
            {
              "internalType": "uint256",
              "name": "voteCount",
              "type": "uint256"
            },
            {
              "internalType": "bool",
              "name": "isRegistered",
              "type": "bool"
            }
          ],
          "internalType": "struct TohyoDapp.Candidate[]",
          "name": "",
          "type": "tuple[]"
        }
      ],
      "stateMutability": "view",
      "type": "function"
    },
    {
      "inputs": [],
      "name": "getTotalCandidates",
      "outputs": [
        {
          "internalType": "uint256",
          "name": "",
          "type": "uint256"
        }
      ],
      "stateMutability": "view",
      "type": "function"
    },
    {
      "inputs": [],
      "name": "getTotalVoters",
      "outputs": [
        {
          "internalType": "uint256",
          "name": "",
          "type": "uint256"
        }
      ],
      "stateMutability": "view",
      "type": "function"
    },
    {
      "inputs": [],
      "name": "owner",
      "outputs": [
        {
          "internalType": "address",
          "name": "",
          "type": "address"
        }
      ],
      "stateMutability": "view",
      "type": "function"
    },
    {
      "inputs": [
        {
          "internalType": "address",
          "name": "_voter",
          "type": "address"
        }
      ],
      "name": "registerVoter",
      "outputs": [],
      "stateMutability": "nonpayable",
      "type": "function"
    },
    {
      "inputs": [
        {
          "internalType": "uint256",
          "name": "",
          "type": "uint256"
        }
      ],
      "name": "registeredCandidateIds",
      "outputs": [
        {
          "internalType": "uint256",
          "name": "",
          "type": "uint256"
        }
      ],
      "stateMutability": "view",
      "type": "function"
    },
    {
      "inputs": [
        {
          "internalType": "uint256",
          "name": "",
          "type": "uint256"
        }
      ],
      "name": "registeredVoters",
      "outputs": [
        {
          "internalType": "address",
          "name": "",
          "type": "address"
        }
      ],
      "stateMutability": "view",
      "type": "function"
    },
    {
      "inputs": [
        {
          "internalType": "uint256",
          "name": "_candidateId",
          "type": "uint256"
        }
      ],
      "name": "vote",
      "outputs": [],
      "stateMutability": "nonpayable",
      "type": "function"
    },
    {
      "inputs": [],
      "name": "votingEndTime",
      "outputs": [
        {
          "internalType": "uint256",
          "name": "",
          "type": "uint256"
        }
      ],
      "stateMutability": "view",
      "type": "function"
    },
    {
      "inputs": [],
      "name": "votingStartTime",
      "outputs": [
        {
          "internalType": "uint256",
          "name": "",
          "type": "uint256"
        }
      ],
      "stateMutability": "view",
      "type": "function"
    }
  ],
  "bytecode": "0x60806040523480156200001157600080fd5b506040516200260038038062002600833981810160405281019062000037919062000161565b6201518081101580156200004e575062278d008111155b62000090576040517f08c379a00000000000000000000000000000000000000000000000000000000081526004016200008790620001f4565b60405180910390fd5b336000806101000a81548173ffffffffffffffffffffffffffffffffffffffff021916908373ffffffffffffffffffffffffffffffffffffffff16021790555060008060146101000a81548160ff02191690836003811115620000f857620000f762000216565b5b0217905550426006819055508060065462000114919062000274565b60078190555050620002af565b600080fd5b6000819050919050565b6200013b8162000126565b81146200014757600080fd5b50565b6000815190506200015b8162000130565b92915050565b6000602082840312156200017a576200017962000121565b5b60006200018a848285016200014a565b91505092915050565b600082825260208201905092915050565b7f496e76616c696420766f74696e67206475726174696f6e000000000000000000600082015250565b6000620001dc60178362000193565b9150620001e982620001a4565b602082019050919050565b600060208201905081810360008301526200020f81620001cd565b9050919050565b7f4e487b7100000000000000000000000000000000000000000000000000000000600052602160045260246000fd5b7f4e487b7100000000000000000000000000000000000000000000000000000000600052601160045260246000fd5b6000620002818262000126565b91506200028e8362000126565b9250828201905080821115620002a957620002a862000245565b5b92915050565b61234180620002bf6000396000f3fe608060405234801561001057600080fd5b50600436106100f55760003560e01c806338db6dd311610097578063793cf21811610066578063793cf218146102745780638da5cb5b14610292578063b9172dec146102b0578063e42b5d4b146102cc576100f5565b806338db6dd3146101ec5780634717f97c146102085780635bf5d54c146102265780636fb0eb3b14610244576100f5565b80631ea736e0116100d35780631ea736e0146101505780632019a6081461016e5780632436e06b1461018c57806335b8e820146101bc576100f5565b80630121b93f146100fa5780630b32ff77146101165780630deb56ab14610132575b600080fd5b610114600480360381019061010f91906113f5565b6102fc565b005b610130600480360381019061012b91906115c6565b6105ad565b005b61013a61091b565b6040516101479190611660565b60405180910390f35b610158610928565b6040516101659190611660565b60405180910390f35b61017661092e565b6040516101839190611660565b60405180910390f35b6101a660048036038101906101a191906113f5565b610934565b6040516101b3919061168a565b60405180910390f35b6101d660048036038101906101d191906113f5565b610973565b6040516101e391906117ed565b60405180910390f35b6102066004803603810190610201919061180f565b610b4f565b005b610210610ea9565b60405161021d919061198e565b60405180910390f35b61022e6111e3565b60405161023b9190611a27565b60405180910390f35b61025e600480360381019061025991906113f5565b6111f6565b60405161026b9190611660565b60405180910390f35b61027c61121a565b6040516102899190611660565b60405180910390f35b61029a611227565b6040516102a7919061168a565b60405180910390f35b6102ca60048036038101906102c59190611a67565b61124b565b005b6102e660048036038101906102e1919061180f565b61133d565b6040516102f39190611aa3565b60405180910390f35b6001806003811115610311576103106119b0565b5b600060149054906101000a900460ff166003811115610333576103326119b0565b5b14610373576040517f08c379a000000000000000000000000000000000000000000000000000000000815260040161036a90611b1b565b60405180910390fd5b6000600160003373ffffffffffffffffffffffffffffffffffffffff1673ffffffffffffffffffffffffffffffffffffffff16815260200190815260200160002090508060000160149054906101000a900460ff16610407576040517f08c379a00000000000000000000000000000000000000000000000000000000081526004016103fe90611b87565b60405180910390fd5b8060000160159054906101000a900460ff1615610459576040517f08c379a000000000000000000000000000000000000000000000000000000000815260040161045090611bf3565b60405180910390fd5b600654421015801561046d57506007544211155b6104ac576040517f08c379a00000000000000000000000000000000000000000000000000000000081526004016104a390611c5f565b60405180910390fd5b6002600084815260200190815260200160002060050160009054906101000a900460ff1661050f576040517f08c379a000000000000000000000000000000000000000000000000000000000815260040161050690611ccb565b60405180910390fd5b60018160000160156101000a81548160ff02191690831515021790555060026000848152602001908152602001600020600401600081548092919061055390611d1a565b91905055503373ffffffffffffffffffffffffffffffffffffffff167fb4cfecf70861b7b150d8337780d34fb4cbc2114b5fb1fe51a5c5fca1849f727484426040516105a0929190611d62565b60405180910390a2505050565b60008054906101000a900473ffffffffffffffffffffffffffffffffffffffff1673ffffffffffffffffffffffffffffffffffffffff163373ffffffffffffffffffffffffffffffffffffffff161461063b576040517f08c379a000000000000000000000000000000000000000000000000000000000815260040161063290611dfd565b60405180910390fd5b60008060038111156106505761064f6119b0565b5b600060149054906101000a900460ff166003811115610672576106716119b0565b5b146106b2576040517f08c379a00000000000000000000000000000000000000000000000000000000081526004016106a990611b1b565b60405180910390fd5b600360008373ffffffffffffffffffffffffffffffffffffffff1673ffffffffffffffffffffffffffffffffffffffff16815260200190815260200160002060009054906101000a900460ff161561073f576040517f08c379a000000000000000000000000000000000000000000000000000000000815260040161073690611e69565b60405180910390fd5b600060016005805490506107539190611e89565b90506040518060c001604052808281526020018681526020018581526020018473ffffffffffffffffffffffffffffffffffffffff1681526020016000815260200160011515815250600260008381526020019081526020016000206000820151816000015560208201518160010190816107ce91906120c9565b5060408201518160020190816107e491906120c9565b5060608201518160030160006101000a81548173ffffffffffffffffffffffffffffffffffffffff021916908373ffffffffffffffffffffffffffffffffffffffff1602179055506080820151816004015560a08201518160050160006101000a81548160ff02191690831515021790555090505060058190806001815401808255809150506001900390600052602060002001600090919091909150556001600360008573ffffffffffffffffffffffffffffffffffffffff1673ffffffffffffffffffffffffffffffffffffffff16815260200190815260200160002060006101000a81548160ff021916908315150217905550807ff119bb07245e20116d1c56128be14390dbc24c94fc13ee0a9bc023da18bab01d868560405161090c9291906121d4565b60405180910390a25050505050565b6000600580549050905090565b60075481565b60065481565b6004818154811061094457600080fd5b906000526020600020016000915054906101000a900473ffffffffffffffffffffffffffffffffffffffff1681565b61097b61135d565b6000600260008481526020019081526020016000206040518060c0016040529081600082015481526020016001820180546109b590611eec565b80601f01602080910402602001604051908101604052809291908181526020018280546109e190611eec565b8015610a2e5780601f10610a0357610100808354040283529160200191610a2e565b820191906000526020600020905b815481529060010190602001808311610a1157829003601f168201915b50505050508152602001600282018054610a4790611eec565b80601f0160208091040260200160405190810160405280929190818152602001828054610a7390611eec565b8015610ac05780601f10610a9557610100808354040283529160200191610ac0565b820191906000526020600020905b815481529060010190602001808311610aa357829003601f168201915b505050505081526020016003820160009054906101000a900473ffffffffffffffffffffffffffffffffffffffff1673ffffffffffffffffffffffffffffffffffffffff1673ffffffffffffffffffffffffffffffffffffffff168152602001600482015481526020016005820160009054906101000a900460ff161515151581525050905080915050919050565b60008054906101000a900473ffffffffffffffffffffffffffffffffffffffff1673ffffffffffffffffffffffffffffffffffffffff163373ffffffffffffffffffffffffffffffffffffffff1614610bdd576040517f08c379a0000000000000000000000000000000000000000000000000000000008152600401610bd490611dfd565b60405180910390fd5b6000806003811115610bf257610bf16119b0565b5b600060149054906101000a900460ff166003811115610c1457610c136119b0565b5b14610c54576040517f08c379a0000000000000000000000000000000000000000000000000000000008152600401610c4b90611b1b565b60405180910390fd5b600160008373ffffffffffffffffffffffffffffffffffffffff1673ffffffffffffffffffffffffffffffffffffffff16815260200190815260200160002060000160149054906101000a900460ff1615610ce4576040517f08c379a0000000000000000000000000000000000000000000000000000000008152600401610cdb90612250565b60405180910390fd5b60405180608001604052808373ffffffffffffffffffffffffffffffffffffffff16815260200160011515815260200160001515815260200142815250600160008473ffffffffffffffffffffffffffffffffffffffff1673ffffffffffffffffffffffffffffffffffffffff16815260200190815260200160002060008201518160000160006101000a81548173ffffffffffffffffffffffffffffffffffffffff021916908373ffffffffffffffffffffffffffffffffffffffff16021790555060208201518160000160146101000a81548160ff02191690831515021790555060408201518160000160156101000a81548160ff021916908315150217905550606082015181600101559050506004829080600181540180825580915050600190039060005260206000200160009091909190916101000a81548173ffffffffffffffffffffffffffffffffffffffff021916908373ffffffffffffffffffffffffffffffffffffffff1602179055508173ffffffffffffffffffffffffffffffffffffffff167ff16ce2c2236e2c6e3df646f80d657bceef4cd7f3a240c47e82adfa17a5f4724142604051610e9d9190611660565b60405180910390a25050565b606060026003811115610ebf57610ebe6119b0565b5b600060149054906101000a900460ff166003811115610ee157610ee06119b0565b5b1480610f1f5750600380811115610efb57610efa6119b0565b5b600060149054906101000a900460ff166003811115610f1d57610f1c6119b0565b5b145b610f5e576040517f08c379a0000000000000000000000000000000000000000000000000000000008152600401610f55906122bc565b60405180910390fd5b600060058054905067ffffffffffffffff811115610f7f57610f7e61143d565b5b604051908082528060200260200182016040528015610fb857816020015b610fa561135d565b815260200190600190039081610f9d5790505b50905060005b6005805490508110156111db576002600060058381548110610fe357610fe26122dc565b5b906000526020600020015481526020019081526020016000206040518060c00160405290816000820154815260200160018201805461102190611eec565b80601f016020809104026020016040519081016040528092919081815260200182805461104d90611eec565b801561109a5780601f1061106f5761010080835404028352916020019161109a565b820191906000526020600020905b81548152906001019060200180831161107d57829003601f168201915b505050505081526020016002820180546110b390611eec565b80601f01602080910402602001604051908101604052809291908181526020018280546110df90611eec565b801561112c5780601f106111015761010080835404028352916020019161112c565b820191906000526020600020905b81548152906001019060200180831161110f57829003601f168201915b505050505081526020016003820160009054906101000a900473ffffffffffffffffffffffffffffffffffffffff1673ffffffffffffffffffffffffffffffffffffffff1673ffffffffffffffffffffffffffffffffffffffff168152602001600482015481526020016005820160009054906101000a900460ff1615151515815250508282815181106111c3576111c26122dc565b5b60200260200101819052508080600101915050610fbe565b508091505090565b600060149054906101000a900460ff1681565b6005818154811061120657600080fd5b906000526020600020016000915090505481565b6000600480549050905090565b60008054906101000a900473ffffffffffffffffffffffffffffffffffffffff1681565b60008054906101000a900473ffffffffffffffffffffffffffffffffffffffff1673ffffffffffffffffffffffffffffffffffffffff163373ffffffffffffffffffffffffffffffffffffffff16146112d9576040517f08c379a00000000000000000000000000000000000000000000000000000000081526004016112d090611dfd565b60405180910390fd5b80600060146101000a81548160ff021916908360038111156112fe576112fd6119b0565b5b02179055507fb41e6ca38f8a317e7835e51768167b38d3b9797c4cb4b846e3c365d0c4336871816040516113329190611a27565b60405180910390a150565b60036020528060005260406000206000915054906101000a900460ff1681565b6040518060c00160405280600081526020016060815260200160608152602001600073ffffffffffffffffffffffffffffffffffffffff168152602001600081526020016000151581525090565b6000604051905090565b600080fd5b600080fd5b6000819050919050565b6113d2816113bf565b81146113dd57600080fd5b50565b6000813590506113ef816113c9565b92915050565b60006020828403121561140b5761140a6113b5565b5b6000611419848285016113e0565b91505092915050565b600080fd5b600080fd5b6000601f19601f8301169050919050565b7f4e487b7100000000000000000000000000000000000000000000000000000000600052604160045260246000fd5b6114758261142c565b810181811067ffffffffffffffff821117156114945761149361143d565b5b80604052505050565b60006114a76113ab565b90506114b3828261146c565b919050565b600067ffffffffffffffff8211156114d3576114d261143d565b5b6114dc8261142c565b9050602081019050919050565b82818337600083830152505050565b600061150b611506846114b8565b61149d565b90508281526020810184848401111561152757611526611427565b5b6115328482856114e9565b509392505050565b600082601f83011261154f5761154e611422565b5b813561155f8482602086016114f8565b91505092915050565b600073ffffffffffffffffffffffffffffffffffffffff82169050919050565b600061159382611568565b9050919050565b6115a381611588565b81146115ae57600080fd5b50565b6000813590506115c08161159a565b92915050565b6000806000606084860312156115df576115de6113b5565b5b600084013567ffffffffffffffff8111156115fd576115fc6113ba565b5b6116098682870161153a565b935050602084013567ffffffffffffffff81111561162a576116296113ba565b5b6116368682870161153a565b9250506040611647868287016115b1565b9150509250925092565b61165a816113bf565b82525050565b60006020820190506116756000830184611651565b92915050565b61168481611588565b82525050565b600060208201905061169f600083018461167b565b92915050565b6116ae816113bf565b82525050565b600081519050919050565b600082825260208201905092915050565b60005b838110156116ee5780820151818401526020810190506116d3565b60008484015250505050565b6000611705826116b4565b61170f81856116bf565b935061171f8185602086016116d0565b6117288161142c565b840191505092915050565b61173c81611588565b82525050565b60008115159050919050565b61175781611742565b82525050565b600060c08301600083015161177560008601826116a5565b506020830151848203602086015261178d82826116fa565b915050604083015184820360408601526117a782826116fa565b91505060608301516117bc6060860182611733565b5060808301516117cf60808601826116a5565b5060a08301516117e260a086018261174e565b508091505092915050565b60006020820190508181036000830152611807818461175d565b905092915050565b600060208284031215611825576118246113b5565b5b6000611833848285016115b1565b91505092915050565b600081519050919050565b600082825260208201905092915050565b6000819050602082019050919050565b600060c08301600083015161188060008601826116a5565b506020830151848203602086015261189882826116fa565b915050604083015184820360408601526118b282826116fa565b91505060608301516118c76060860182611733565b5060808301516118da60808601826116a5565b5060a08301516118ed60a086018261174e565b508091505092915050565b60006119048383611868565b905092915050565b6000602082019050919050565b60006119248261183c565b61192e8185611847565b93508360208202850161194085611858565b8060005b8581101561197c578484038952815161195d85826118f8565b94506119688361190c565b925060208a01995050600181019050611944565b50829750879550505050505092915050565b600060208201905081810360008301526119a88184611919565b905092915050565b7f4e487b7100000000000000000000000000000000000000000000000000000000600052602160045260246000fd5b600481106119f0576119ef6119b0565b5b50565b6000819050611a01826119df565b919050565b6000611a11826119f3565b9050919050565b611a2181611a06565b82525050565b6000602082019050611a3c6000830184611a18565b92915050565b60048110611a4f57600080fd5b50565b600081359050611a6181611a42565b92915050565b600060208284031215611a7d57611a7c6113b5565b5b6000611a8b84828501611a52565b91505092915050565b611a9d81611742565b82525050565b6000602082019050611ab86000830184611a94565b92915050565b600082825260208201905092915050565b7f496e76616c696420766f74696e67207374616765000000000000000000000000600082015250565b6000611b05601483611abe565b9150611b1082611acf565b602082019050919050565b60006020820190508181036000830152611b3481611af8565b9050919050565b7f566f746572206e6f742072656769737465726564000000000000000000000000600082015250565b6000611b71601483611abe565b9150611b7c82611b3b565b602082019050919050565b60006020820190508181036000830152611ba081611b64565b9050919050565b7f566f74657220616c726561647920766f74656400000000000000000000000000600082015250565b6000611bdd601383611abe565b9150611be882611ba7565b602082019050919050565b60006020820190508181036000830152611c0c81611bd0565b9050919050565b7f566f74696e6720706572696f64206f7665720000000000000000000000000000600082015250565b6000611c49601283611abe565b9150611c5482611c13565b602082019050919050565b60006020820190508181036000830152611c7881611c3c565b9050919050565b7f496e76616c69642063616e646964617465000000000000000000000000000000600082015250565b6000611cb5601183611abe565b9150611cc082611c7f565b602082019050919050565b60006020820190508181036000830152611ce481611ca8565b9050919050565b7f4e487b7100000000000000000000000000000000000000000000000000000000600052601160045260246000fd5b6000611d25826113bf565b91507fffffffffffffffffffffffffffffffffffffffffffffffffffffffffffffffff8203611d5757611d56611ceb565b5b600182019050919050565b6000604082019050611d776000830185611651565b611d846020830184611651565b9392505050565b7f4f6e6c79206f776e65722063616e2063616c6c20746869732066756e6374696f60008201527f6e00000000000000000000000000000000000000000000000000000000000000602082015250565b6000611de7602183611abe565b9150611df282611d8b565b604082019050919050565b60006020820190508181036000830152611e1681611dda565b9050919050565b7f43616e64696461746520616c7265616479207265676973746572656400000000600082015250565b6000611e53601c83611abe565b9150611e5e82611e1d565b602082019050919050565b60006020820190508181036000830152611e8281611e46565b9050919050565b6000611e94826113bf565b9150611e9f836113bf565b9250828201905080821115611eb757611eb6611ceb565b5b92915050565b7f4e487b7100000000000000000000000000000000000000000000000000000000600052602260045260246000fd5b60006002820490506001821680611f0457607f821691505b602082108103611f1757611f16611ebd565b5b50919050565b60008190508160005260206000209050919050565b60006020601f8301049050919050565b600082821b905092915050565b600060088302611f7f7fffffffffffffffffffffffffffffffffffffffffffffffffffffffffffffffff82611f42565b611f898683611f42565b95508019841693508086168417925050509392505050565b6000819050919050565b6000611fc6611fc1611fbc846113bf565b611fa1565b6113bf565b9050919050565b6000819050919050565b611fe083611fab565b611ff4611fec82611fcd565b848454611f4f565b825550505050565b600090565b612009611ffc565b612014818484611fd7565b505050565b5b818110156120385761202d600082612001565b60018101905061201a565b5050565b601f82111561207d5761204e81611f1d565b61205784611f32565b81016020851015612066578190505b61207a61207285611f32565b830182612019565b50505b505050565b600082821c905092915050565b60006120a060001984600802612082565b1980831691505092915050565b60006120b9838361208f565b9150826002028217905092915050565b6120d2826116b4565b67ffffffffffffffff8111156120eb576120ea61143d565b5b6120f58254611eec565b61210082828561203c565b600060209050601f8311600181146121335760008415612121578287015190505b61212b85826120ad565b865550612193565b601f19841661214186611f1d565b60005b8281101561216957848901518255600182019150602085019450602081019050612144565b868310156121865784890151612182601f89168261208f565b8355505b6001600288020188555050505b505050505050565b60006121a6826116b4565b6121b08185611abe565b93506121c08185602086016116d0565b6121c98161142c565b840191505092915050565b600060408201905081810360008301526121ee818561219b565b90506121fd602083018461167b565b9392505050565b7f566f74657220616c726561647920726567697374657265640000000000000000600082015250565b600061223a601883611abe565b915061224582612204565b602082019050919050565b600060208201905081810360008301526122698161222d565b9050919050565b7f526573756c7473206e6f7420617661696c61626c650000000000000000000000600082015250565b60006122a6601583611abe565b91506122b182612270565b602082019050919050565b600060208201905081810360008301526122d581612299565b9050919050565b7f4e487b7100000000000000000000000000000000000000000000000000000000600052603260045260246000fdfea2646970667358221220c84c7d9cbd2089fb46fef37cb3e6dbbda56b165b02aef4141491eb61b634c6b464736f6c63430008180033",
  "linkReferences": {},
  "deployedLinkReferences": {}
}