{
  "_format": "hh-sol-artifact-1",
  "contractName": "TohyoDapp",
  "sourceName": "contracts/tohyo.sol",
  "abi": [
    {
      "inputs": [
        {
          "internalType": "uint256",
          "name": "_votingDuration",
          "type": "uint256"
        }
      ],
      "stateMutability": "nonpayable",
      "type": "constructor"
    },
    {
      "anonymous": false,
      "inputs": [
        {
          "indexed": true,
          "internalType": "uint256",
          "name": "candidateId",
          "type": "uint256"
        },
        {
          "indexed": false,
          "internalType": "string",
          "name": "name",
          "type": "string"
        },
        {
          "indexed": false,
          "internalType": "address",
          "name": "candidateAddress",
          "type": "address"
        }
      ],
      "name": "CandidateAdded",
      "type": "event"
    },
    {
      "anonymous": false,
      "inputs": [
        {
          "indexed": true,
          "internalType": "address",
          "name": "voter",
          "type": "address"
        },
        {
          "indexed": false,
          "internalType": "uint256",
          "name": "candidateId",
          "type": "uint256"
        },
        {
          "indexed": false,
          "internalType": "uint256",
          "name": "timestamp",
          "type": "uint256"
        }
      ],
      "name": "VoteCast",
      "type": "event"
    },
    {
      "anonymous": false,
      "inputs": [
        {
          "indexed": true,
          "internalType": "address",
          "name": "voter",
          "type": "address"
        },
        {
          "indexed": false,
          "internalType": "uint256",
          "name": "timestamp",
          "type": "uint256"
        }
      ],
      "name": "VoterRegistered",
      "type": "event"
    },
    {
      "anonymous": false,
      "inputs": [
        {
          "indexed": false,
          "internalType": "enum TohyoDapp.VotingStage",
          "name": "newStage",
          "type": "uint8"
        }
      ],
      "name": "VotingStageChanged",
      "type": "event"
    },
    {
      "inputs": [
        {
          "internalType": "string",
          "name": "_name",
          "type": "string"
        },
        {
          "internalType": "string",
          "name": "_description",
          "type": "string"
        },
        {
          "internalType": "address",
          "name": "_candidateAddress",
          "type": "address"
        }
      ],
      "name": "addCandidate",
      "outputs": [],
      "stateMutability": "nonpayable",
      "type": "function"
    },
    {
      "inputs": [
        {
          "internalType": "address",
          "name": "",
          "type": "address"
        }
      ],
      "name": "candidateAddresses",
      "outputs": [
        {
          "internalType": "bool",
          "name": "",
          "type": "bool"
        }
      ],
      "stateMutability": "view",
      "type": "function"
    },
    {
      "inputs": [
        {
          "internalType": "enum TohyoDapp.VotingStage",
          "name": "_newStage",
          "type": "uint8"
        }
      ],
      "name": "changeStage",
      "outputs": [],
      "stateMutability": "nonpayable",
      "type": "function"
    },
    {
      "inputs": [],
      "name": "currentStage",
      "outputs": [
        {
          "internalType": "enum TohyoDapp.VotingStage",
          "name": "",
          "type": "uint8"
        }
      ],
      "stateMutability": "view",
      "type": "function"
    },
    {
      "inputs": [],
      "name": "getResults",
      "outputs": [
        {
          "components": [
            {
              "internalType": "uint256",
              "name": "id",
              "type": "uint256"
            },
            {
              "internalType": "string",
              "name": "name",
              "type": "string"
            },
            {
              "internalType": "string",
              "name": "description",
              "type": "string"
            },
            {
              "internalType": "address",
              "name": "candidateAddress",
              "type": "address"
            },
            {
              "internalType": "uint256",
              "name": "voteCount",
              "type": "uint256"
            },
            {
              "internalType": "bool",
              "name": "isRegistered",
              "type": "bool"
            }
          ],
          "internalType": "struct TohyoDapp.Candidate[]",
          "name": "",
          "type": "tuple[]"
        }
      ],
      "stateMutability": "view",
      "type": "function"
    },
    {
      "inputs": [],
      "name": "getTotalCandidates",
      "outputs": [
        {
          "internalType": "uint256",
          "name": "",
          "type": "uint256"
        }
      ],
      "stateMutability": "view",
      "type": "function"
    },
    {
      "inputs": [],
      "name": "getTotalVoters",
      "outputs": [
        {
          "internalType": "uint256",
          "name": "",
          "type": "uint256"
        }
      ],
      "stateMutability": "view",
      "type": "function"
    },
    {
      "inputs": [],
      "name": "owner",
      "outputs": [
        {
          "internalType": "address",
          "name": "",
          "type": "address"
        }
      ],
      "stateMutability": "view",
      "type": "function"
    },
    {
      "inputs": [
        {
          "internalType": "address",
          "name": "_voter",
          "type": "address"
        }
      ],
      "name": "registerVoter",
      "outputs": [],
      "stateMutability": "nonpayable",
      "type": "function"
    },
    {
      "inputs": [
        {
          "internalType": "uint256",
          "name": "",
          "type": "uint256"
        }
      ],
      "name": "registeredCandidateIds",
      "outputs": [
        {
          "internalType": "uint256",
          "name": "",
          "type": "uint256"
        }
      ],
      "stateMutability": "view",
      "type": "function"
    },
    {
      "inputs": [
        {
          "internalType": "uint256",
          "name": "",
          "type": "uint256"
        }
      ],
      "name": "registeredVoters",
      "outputs": [
        {
          "internalType": "address",
          "name": "",
          "type": "address"
        }
      ],
      "stateMutability": "view",
      "type": "function"
    },
    {
      "inputs": [
        {
          "internalType": "uint256",
          "name": "_candidateId",
          "type": "uint256"
        }
      ],
      "name": "vote",
      "outputs": [],
      "stateMutability": "nonpayable",
      "type": "function"
    },
    {
      "inputs": [],
      "name": "votingEndTime",
      "outputs": [
        {
          "internalType": "uint256",
          "name": "",
          "type": "uint256"
        }
      ],
      "stateMutability": "view",
      "type": "function"
    },
    {
      "inputs": [],
      "name": "votingStartTime",
      "outputs": [
        {
          "internalType": "uint256",
          "name": "",
          "type": "uint256"
        }
      ],
      "stateMutability": "view",
      "type": "function"
    }
  ],
  "bytecode": "0x60806040523480156200001157600080fd5b506040516200233738038062002337833981810160405281019062000037919062000161565b6201518081101580156200004e575062278d008111155b62000090576040517f08c379a00000000000000000000000000000000000000000000000000000000081526004016200008790620001f4565b60405180910390fd5b336000806101000a81548173ffffffffffffffffffffffffffffffffffffffff021916908373ffffffffffffffffffffffffffffffffffffffff16021790555060008060146101000a81548160ff02191690836003811115620000f857620000f762000216565b5b0217905550426006819055508060065462000114919062000274565b60078190555050620002af565b600080fd5b6000819050919050565b6200013b8162000126565b81146200014757600080fd5b50565b6000815190506200015b8162000130565b92915050565b6000602082840312156200017a576200017962000121565b5b60006200018a848285016200014a565b91505092915050565b600082825260208201905092915050565b7f496e76616c696420766f74696e67206475726174696f6e000000000000000000600082015250565b6000620001dc60178362000193565b9150620001e982620001a4565b602082019050919050565b600060208201905081810360008301526200020f81620001cd565b9050919050565b7f4e487b7100000000000000000000000000000000000000000000000000000000600052602160045260246000fd5b7f4e487b7100000000000000000000000000000000000000000000000000000000600052601160045260246000fd5b6000620002818262000126565b91506200028e8362000126565b9250828201905080821115620002a957620002a862000245565b5b92915050565b61207880620002bf6000396000f3fe608060405234801561001057600080fd5b50600436106100ea5760003560e01c80634717f97c1161008c578063793cf21811610066578063793cf218146102395780638da5cb5b14610257578063b9172dec14610275578063e42b5d4b14610291576100ea565b80634717f97c146101cd5780635bf5d54c146101eb5780636fb0eb3b14610209576100ea565b80631ea736e0116100c85780631ea736e0146101455780632019a608146101635780632436e06b1461018157806338db6dd3146101b1576100ea565b80630121b93f146100ef5780630b32ff771461010b5780630deb56ab14610127575b600080fd5b610109600480360381019061010491906111de565b6102c1565b005b610125600480360381019061012091906113af565b610572565b005b61012f6108e0565b60405161013c9190611449565b60405180910390f35b61014d6108ed565b60405161015a9190611449565b60405180910390f35b61016b6108f3565b6040516101789190611449565b60405180910390f35b61019b600480360381019061019691906111de565b6108f9565b6040516101a89190611473565b60405180910390f35b6101cb60048036038101906101c6919061148e565b610938565b005b6101d5610c92565b6040516101e291906116c5565b60405180910390f35b6101f3610fcc565b604051610200919061175e565b60405180910390f35b610223600480360381019061021e91906111de565b610fdf565b6040516102309190611449565b60405180910390f35b610241611003565b60405161024e9190611449565b60405180910390f35b61025f611010565b60405161026c9190611473565b60405180910390f35b61028f600480360381019061028a919061179e565b611034565b005b6102ab60048036038101906102a6919061148e565b611126565b6040516102b891906117da565b60405180910390f35b60018060038111156102d6576102d56116e7565b5b600060149054906101000a900460ff1660038111156102f8576102f76116e7565b5b14610338576040517f08c379a000000000000000000000000000000000000000000000000000000000815260040161032f90611852565b60405180910390fd5b6000600160003373ffffffffffffffffffffffffffffffffffffffff1673ffffffffffffffffffffffffffffffffffffffff16815260200190815260200160002090508060000160149054906101000a900460ff166103cc576040517f08c379a00000000000000000000000000000000000000000000000000000000081526004016103c3906118be565b60405180910390fd5b8060000160159054906101000a900460ff161561041e576040517f08c379a00000000000000000000000000000000000000000000000000000000081526004016104159061192a565b60405180910390fd5b600654421015801561043257506007544211155b610471576040517f08c379a000000000000000000000000000000000000000000000000000000000815260040161046890611996565b60405180910390fd5b6002600084815260200190815260200160002060050160009054906101000a900460ff166104d4576040517f08c379a00000000000000000000000000000000000000000000000000000000081526004016104cb90611a02565b60405180910390fd5b60018160000160156101000a81548160ff02191690831515021790555060026000848152602001908152602001600020600401600081548092919061051890611a51565b91905055503373ffffffffffffffffffffffffffffffffffffffff167fb4cfecf70861b7b150d8337780d34fb4cbc2114b5fb1fe51a5c5fca1849f72748442604051610565929190611a99565b60405180910390a2505050565b60008054906101000a900473ffffffffffffffffffffffffffffffffffffffff1673ffffffffffffffffffffffffffffffffffffffff163373ffffffffffffffffffffffffffffffffffffffff1614610600576040517f08c379a00000000000000000000000000000000000000000000000000000000081526004016105f790611b34565b60405180910390fd5b6000806003811115610615576106146116e7565b5b600060149054906101000a900460ff166003811115610637576106366116e7565b5b14610677576040517f08c379a000000000000000000000000000000000000000000000000000000000815260040161066e90611852565b60405180910390fd5b600360008373ffffffffffffffffffffffffffffffffffffffff1673ffffffffffffffffffffffffffffffffffffffff16815260200190815260200160002060009054906101000a900460ff1615610704576040517f08c379a00000000000000000000000000000000000000000000000000000000081526004016106fb90611ba0565b60405180910390fd5b600060016005805490506107189190611bc0565b90506040518060c001604052808281526020018681526020018581526020018473ffffffffffffffffffffffffffffffffffffffff1681526020016000815260200160011515815250600260008381526020019081526020016000206000820151816000015560208201518160010190816107939190611e00565b5060408201518160020190816107a99190611e00565b5060608201518160030160006101000a81548173ffffffffffffffffffffffffffffffffffffffff021916908373ffffffffffffffffffffffffffffffffffffffff1602179055506080820151816004015560a08201518160050160006101000a81548160ff02191690831515021790555090505060058190806001815401808255809150506001900390600052602060002001600090919091909150556001600360008573ffffffffffffffffffffffffffffffffffffffff1673ffffffffffffffffffffffffffffffffffffffff16815260200190815260200160002060006101000a81548160ff021916908315150217905550807ff119bb07245e20116d1c56128be14390dbc24c94fc13ee0a9bc023da18bab01d86856040516108d1929190611f0b565b60405180910390a25050505050565b6000600580549050905090565b60075481565b60065481565b6004818154811061090957600080fd5b906000526020600020016000915054906101000a900473ffffffffffffffffffffffffffffffffffffffff1681565b60008054906101000a900473ffffffffffffffffffffffffffffffffffffffff1673ffffffffffffffffffffffffffffffffffffffff163373ffffffffffffffffffffffffffffffffffffffff16146109c6576040517f08c379a00000000000000000000000000000000000000000000000000000000081526004016109bd90611b34565b60405180910390fd5b60008060038111156109db576109da6116e7565b5b600060149054906101000a900460ff1660038111156109fd576109fc6116e7565b5b14610a3d576040517f08c379a0000000000000000000000000000000000000000000000000000000008152600401610a3490611852565b60405180910390fd5b600160008373ffffffffffffffffffffffffffffffffffffffff1673ffffffffffffffffffffffffffffffffffffffff16815260200190815260200160002060000160149054906101000a900460ff1615610acd576040517f08c379a0000000000000000000000000000000000000000000000000000000008152600401610ac490611f87565b60405180910390fd5b60405180608001604052808373ffffffffffffffffffffffffffffffffffffffff16815260200160011515815260200160001515815260200142815250600160008473ffffffffffffffffffffffffffffffffffffffff1673ffffffffffffffffffffffffffffffffffffffff16815260200190815260200160002060008201518160000160006101000a81548173ffffffffffffffffffffffffffffffffffffffff021916908373ffffffffffffffffffffffffffffffffffffffff16021790555060208201518160000160146101000a81548160ff02191690831515021790555060408201518160000160156101000a81548160ff021916908315150217905550606082015181600101559050506004829080600181540180825580915050600190039060005260206000200160009091909190916101000a81548173ffffffffffffffffffffffffffffffffffffffff021916908373ffffffffffffffffffffffffffffffffffffffff1602179055508173ffffffffffffffffffffffffffffffffffffffff167ff16ce2c2236e2c6e3df646f80d657bceef4cd7f3a240c47e82adfa17a5f4724142604051610c869190611449565b60405180910390a25050565b606060026003811115610ca857610ca76116e7565b5b600060149054906101000a900460ff166003811115610cca57610cc96116e7565b5b1480610d085750600380811115610ce457610ce36116e7565b5b600060149054906101000a900460ff166003811115610d0657610d056116e7565b5b145b610d47576040517f08c379a0000000000000000000000000000000000000000000000000000000008152600401610d3e90611ff3565b60405180910390fd5b600060058054905067ffffffffffffffff811115610d6857610d67611226565b5b604051908082528060200260200182016040528015610da157816020015b610d8e611146565b815260200190600190039081610d865790505b50905060005b600580549050811015610fc4576002600060058381548110610dcc57610dcb612013565b5b906000526020600020015481526020019081526020016000206040518060c001604052908160008201548152602001600182018054610e0a90611c23565b80601f0160208091040260200160405190810160405280929190818152602001828054610e3690611c23565b8015610e835780601f10610e5857610100808354040283529160200191610e83565b820191906000526020600020905b815481529060010190602001808311610e6657829003601f168201915b50505050508152602001600282018054610e9c90611c23565b80601f0160208091040260200160405190810160405280929190818152602001828054610ec890611c23565b8015610f155780601f10610eea57610100808354040283529160200191610f15565b820191906000526020600020905b815481529060010190602001808311610ef857829003601f168201915b505050505081526020016003820160009054906101000a900473ffffffffffffffffffffffffffffffffffffffff1673ffffffffffffffffffffffffffffffffffffffff1673ffffffffffffffffffffffffffffffffffffffff168152602001600482015481526020016005820160009054906101000a900460ff161515151581525050828281518110610fac57610fab612013565b5b60200260200101819052508080600101915050610da7565b508091505090565b600060149054906101000a900460ff1681565b60058181548110610fef57600080fd5b906000526020600020016000915090505481565b6000600480549050905090565b60008054906101000a900473ffffffffffffffffffffffffffffffffffffffff1681565b60008054906101000a900473ffffffffffffffffffffffffffffffffffffffff1673ffffffffffffffffffffffffffffffffffffffff163373ffffffffffffffffffffffffffffffffffffffff16146110c2576040517f08c379a00000000000000000000000000000000000000000000000000000000081526004016110b990611b34565b60405180910390fd5b80600060146101000a81548160ff021916908360038111156110e7576110e66116e7565b5b02179055507fb41e6ca38f8a317e7835e51768167b38d3b9797c4cb4b846e3c365d0c43368718160405161111b919061175e565b60405180910390a150565b60036020528060005260406000206000915054906101000a900460ff1681565b6040518060c00160405280600081526020016060815260200160608152602001600073ffffffffffffffffffffffffffffffffffffffff168152602001600081526020016000151581525090565b6000604051905090565b600080fd5b600080fd5b6000819050919050565b6111bb816111a8565b81146111c657600080fd5b50565b6000813590506111d8816111b2565b92915050565b6000602082840312156111f4576111f361119e565b5b6000611202848285016111c9565b91505092915050565b600080fd5b600080fd5b6000601f19601f8301169050919050565b7f4e487b7100000000000000000000000000000000000000000000000000000000600052604160045260246000fd5b61125e82611215565b810181811067ffffffffffffffff8211171561127d5761127c611226565b5b80604052505050565b6000611290611194565b905061129c8282611255565b919050565b600067ffffffffffffffff8211156112bc576112bb611226565b5b6112c582611215565b9050602081019050919050565b82818337600083830152505050565b60006112f46112ef846112a1565b611286565b9050828152602081018484840111156113105761130f611210565b5b61131b8482856112d2565b509392505050565b600082601f8301126113385761133761120b565b5b81356113488482602086016112e1565b91505092915050565b600073ffffffffffffffffffffffffffffffffffffffff82169050919050565b600061137c82611351565b9050919050565b61138c81611371565b811461139757600080fd5b50565b6000813590506113a981611383565b92915050565b6000806000606084860312156113c8576113c761119e565b5b600084013567ffffffffffffffff8111156113e6576113e56111a3565b5b6113f286828701611323565b935050602084013567ffffffffffffffff811115611413576114126111a3565b5b61141f86828701611323565b92505060406114308682870161139a565b9150509250925092565b611443816111a8565b82525050565b600060208201905061145e600083018461143a565b92915050565b61146d81611371565b82525050565b60006020820190506114886000830184611464565b92915050565b6000602082840312156114a4576114a361119e565b5b60006114b28482850161139a565b91505092915050565b600081519050919050565b600082825260208201905092915050565b6000819050602082019050919050565b6114f0816111a8565b82525050565b600081519050919050565b600082825260208201905092915050565b60005b83811015611530578082015181840152602081019050611515565b60008484015250505050565b6000611547826114f6565b6115518185611501565b9350611561818560208601611512565b61156a81611215565b840191505092915050565b61157e81611371565b82525050565b60008115159050919050565b61159981611584565b82525050565b600060c0830160008301516115b760008601826114e7565b50602083015184820360208601526115cf828261153c565b915050604083015184820360408601526115e9828261153c565b91505060608301516115fe6060860182611575565b50608083015161161160808601826114e7565b5060a083015161162460a0860182611590565b508091505092915050565b600061163b838361159f565b905092915050565b6000602082019050919050565b600061165b826114bb565b61166581856114c6565b935083602082028501611677856114d7565b8060005b858110156116b35784840389528151611694858261162f565b945061169f83611643565b925060208a0199505060018101905061167b565b50829750879550505050505092915050565b600060208201905081810360008301526116df8184611650565b905092915050565b7f4e487b7100000000000000000000000000000000000000000000000000000000600052602160045260246000fd5b60048110611727576117266116e7565b5b50565b600081905061173882611716565b919050565b60006117488261172a565b9050919050565b6117588161173d565b82525050565b6000602082019050611773600083018461174f565b92915050565b6004811061178657600080fd5b50565b60008135905061179881611779565b92915050565b6000602082840312156117b4576117b361119e565b5b60006117c284828501611789565b91505092915050565b6117d481611584565b82525050565b60006020820190506117ef60008301846117cb565b92915050565b600082825260208201905092915050565b7f496e76616c696420766f74696e67207374616765000000000000000000000000600082015250565b600061183c6014836117f5565b915061184782611806565b602082019050919050565b6000602082019050818103600083015261186b8161182f565b9050919050565b7f566f746572206e6f742072656769737465726564000000000000000000000000600082015250565b60006118a86014836117f5565b91506118b382611872565b602082019050919050565b600060208201905081810360008301526118d78161189b565b9050919050565b7f566f74657220616c726561647920766f74656400000000000000000000000000600082015250565b60006119146013836117f5565b915061191f826118de565b602082019050919050565b6000602082019050818103600083015261194381611907565b9050919050565b7f566f74696e6720706572696f64206f7665720000000000000000000000000000600082015250565b60006119806012836117f5565b915061198b8261194a565b602082019050919050565b600060208201905081810360008301526119af81611973565b9050919050565b7f496e76616c69642063616e646964617465000000000000000000000000000000600082015250565b60006119ec6011836117f5565b91506119f7826119b6565b602082019050919050565b60006020820190508181036000830152611a1b816119df565b9050919050565b7f4e487b7100000000000000000000000000000000000000000000000000000000600052601160045260246000fd5b6000611a5c826111a8565b91507fffffffffffffffffffffffffffffffffffffffffffffffffffffffffffffffff8203611a8e57611a8d611a22565b5b600182019050919050565b6000604082019050611aae600083018561143a565b611abb602083018461143a565b9392505050565b7f4f6e6c79206f776e65722063616e2063616c6c20746869732066756e6374696f60008201527f6e00000000000000000000000000000000000000000000000000000000000000602082015250565b6000611b1e6021836117f5565b9150611b2982611ac2565b604082019050919050565b60006020820190508181036000830152611b4d81611b11565b9050919050565b7f43616e64696461746520616c7265616479207265676973746572656400000000600082015250565b6000611b8a601c836117f5565b9150611b9582611b54565b602082019050919050565b60006020820190508181036000830152611bb981611b7d565b9050919050565b6000611bcb826111a8565b9150611bd6836111a8565b9250828201905080821115611bee57611bed611a22565b5b92915050565b7f4e487b7100000000000000000000000000000000000000000000000000000000600052602260045260246000fd5b60006002820490506001821680611c3b57607f821691505b602082108103611c4e57611c4d611bf4565b5b50919050565b60008190508160005260206000209050919050565b60006020601f8301049050919050565b600082821b905092915050565b600060088302611cb67fffffffffffffffffffffffffffffffffffffffffffffffffffffffffffffffff82611c79565b611cc08683611c79565b95508019841693508086168417925050509392505050565b6000819050919050565b6000611cfd611cf8611cf3846111a8565b611cd8565b6111a8565b9050919050565b6000819050919050565b611d1783611ce2565b611d2b611d2382611d04565b848454611c86565b825550505050565b600090565b611d40611d33565b611d4b818484611d0e565b505050565b5b81811015611d6f57611d64600082611d38565b600181019050611d51565b5050565b601f821115611db457611d8581611c54565b611d8e84611c69565b81016020851015611d9d578190505b611db1611da985611c69565b830182611d50565b50505b505050565b600082821c905092915050565b6000611dd760001984600802611db9565b1980831691505092915050565b6000611df08383611dc6565b9150826002028217905092915050565b611e09826114f6565b67ffffffffffffffff811115611e2257611e21611226565b5b611e2c8254611c23565b611e37828285611d73565b600060209050601f831160018114611e6a5760008415611e58578287015190505b611e628582611de4565b865550611eca565b601f198416611e7886611c54565b60005b82811015611ea057848901518255600182019150602085019450602081019050611e7b565b86831015611ebd5784890151611eb9601f891682611dc6565b8355505b6001600288020188555050505b505050505050565b6000611edd826114f6565b611ee781856117f5565b9350611ef7818560208601611512565b611f0081611215565b840191505092915050565b60006040820190508181036000830152611f258185611ed2565b9050611f346020830184611464565b9392505050565b7f566f74657220616c726561647920726567697374657265640000000000000000600082015250565b6000611f716018836117f5565b9150611f7c82611f3b565b602082019050919050565b60006020820190508181036000830152611fa081611f64565b9050919050565b7f526573756c7473206e6f7420617661696c61626c650000000000000000000000600082015250565b6000611fdd6015836117f5565b9150611fe882611fa7565b602082019050919050565b6000602082019050818103600083015261200c81611fd0565b9050919050565b7f4e487b7100000000000000000000000000000000000000000000000000000000600052603260045260246000fdfea2646970667358221220ccc2d8e1ed37747cdbea63e6d3bcf8c44ed7fb94b247f69dba330d46b0bccdff64736f6c63430008180033",
  "linkReferences": {},
  "deployedLinkReferences": {}
}